{
  "_format": "hh-sol-artifact-1",
  "contractName": "Contract",
  "sourceName": "contracts/Contract.sol",
  "abi": [
    {
      "inputs": [],
      "stateMutability": "nonpayable",
      "type": "constructor"
    },
    {
      "inputs": [
        {
          "internalType": "address",
          "name": "key",
          "type": "address"
        }
      ],
      "name": "deleteItem",
      "outputs": [],
      "stateMutability": "nonpayable",
      "type": "function"
    },
    {
      "inputs": [
        {
          "internalType": "address",
          "name": "key",
          "type": "address"
        },
        {
          "internalType": "uint256",
          "name": "value",
          "type": "uint256"
        }
      ],
      "name": "edit",
      "outputs": [],
      "stateMutability": "nonpayable",
      "type": "function"
    },
    {
      "inputs": [
        {
          "internalType": "address",
          "name": "key",
          "type": "address"
        }
      ],
      "name": "exist",
      "outputs": [
        {
          "internalType": "bool",
          "name": "",
          "type": "bool"
        }
      ],
      "stateMutability": "view",
      "type": "function"
    },
    {
      "inputs": [
        {
          "internalType": "address",
          "name": "key",
          "type": "address"
        }
      ],
      "name": "get",
      "outputs": [
        {
          "internalType": "uint256",
          "name": "",
          "type": "uint256"
        }
      ],
      "stateMutability": "view",
      "type": "function"
    },
    {
      "inputs": [
        {
          "internalType": "address",
          "name": "key",
          "type": "address"
        }
      ],
      "name": "indexOf",
      "outputs": [
        {
          "internalType": "uint256",
          "name": "",
          "type": "uint256"
        }
      ],
      "stateMutability": "view",
      "type": "function"
    },
    {
      "inputs": [
        {
          "internalType": "address",
          "name": "key",
          "type": "address"
        },
        {
          "internalType": "uint256",
          "name": "value",
          "type": "uint256"
        }
      ],
      "name": "set",
      "outputs": [],
      "stateMutability": "nonpayable",
      "type": "function"
    },
    {
      "inputs": [],
      "name": "totalBalance",
      "outputs": [
        {
          "internalType": "uint256",
          "name": "",
          "type": "uint256"
        }
      ],
      "stateMutability": "view",
      "type": "function"
    },
    {
      "inputs": [],
      "name": "totalNumber",
      "outputs": [
        {
          "internalType": "uint256",
          "name": "",
          "type": "uint256"
        }
      ],
      "stateMutability": "view",
      "type": "function"
    }
  ],
  "bytecode": "0x608060405234801561001057600080fd5b5060006002819055506000600181905550610d49806100306000396000f3fe608060405234801561001057600080fd5b50600436106100885760003560e01c8063ad7a672f1161005b578063ad7a672f14610111578063c0daddfd1461012f578063c2bc2efc1461014d578063fd6aad251461017d57610088565b80633825d8281461008d5780634dfefc4b146100a9578063758db588146100d9578063a2d12546146100f5575b600080fd5b6100a760048036038101906100a291906109c1565b6101ad565b005b6100c360048036038101906100be9190610a01565b610355565b6040516100d09190610a49565b60405180910390f35b6100f360048036038101906100ee9190610a01565b6103a4565b005b61010f600480360381019061010a91906109c1565b61056b565b005b6101196106c6565b6040516101269190610a73565b60405180910390f35b6101376106d0565b6040516101449190610a73565b60405180910390f35b61016760048036038101906101629190610a01565b6106d9565b6040516101749190610a73565b60405180910390f35b61019760048036038101906101929190610a01565b6107ac565b6040516101a49190610a73565b60405180910390f35b6000600360008473ffffffffffffffffffffffffffffffffffffffff1673ffffffffffffffffffffffffffffffffffffffff1681526020019081526020016000206001015414610232576040517f08c379a000000000000000000000000000000000000000000000000000000000815260040161022990610aeb565b60405180910390fd5b60008111610275576040517f08c379a000000000000000000000000000000000000000000000000000000000815260040161026c90610b57565b60405180910390fd5b80600360008473ffffffffffffffffffffffffffffffffffffffff1673ffffffffffffffffffffffffffffffffffffffff1681526020019081526020016000206001018190555080600160008282546102ce9190610ba6565b9250508190555060016000808282546102e79190610ba6565b92505081905550600254600360008473ffffffffffffffffffffffffffffffffffffffff1673ffffffffffffffffffffffffffffffffffffffff1681526020019081526020016000206000018190555060016002600082825461034a9190610ba6565b925050819055505050565b600080600360008473ffffffffffffffffffffffffffffffffffffffff1673ffffffffffffffffffffffffffffffffffffffff1681526020019081526020016000206001015414159050919050565b806000600360008373ffffffffffffffffffffffffffffffffffffffff1673ffffffffffffffffffffffffffffffffffffffff168152602001908152602001600020600101540361042a576040517f08c379a000000000000000000000000000000000000000000000000000000000815260040161042190610c48565b60405180910390fd5b6000600360008473ffffffffffffffffffffffffffffffffffffffff1673ffffffffffffffffffffffffffffffffffffffff16815260200190815260200160002060010154905080600160008282546104839190610c68565b925050819055506000600360008573ffffffffffffffffffffffffffffffffffffffff1673ffffffffffffffffffffffffffffffffffffffff1681526020019081526020016000206000015490506004819080600181540180825580915050600190039060005260206000200160009091909190915055600360008573ffffffffffffffffffffffffffffffffffffffff1673ffffffffffffffffffffffffffffffffffffffff16815260200190815260200160002060008082016000905560018201600090555050600160008082825461055e9190610c68565b9250508190555050505050565b816000600360008373ffffffffffffffffffffffffffffffffffffffff1673ffffffffffffffffffffffffffffffffffffffff16815260200190815260200160002060010154036105f1576040517f08c379a00000000000000000000000000000000000000000000000000000000081526004016105e890610c48565b60405180910390fd5b60008211610634576040517f08c379a000000000000000000000000000000000000000000000000000000000815260040161062b90610b57565b60405180910390fd5b6000600360008573ffffffffffffffffffffffffffffffffffffffff1673ffffffffffffffffffffffffffffffffffffffff168152602001908152602001600020600101549050806001600082825461068d9190610c68565b9250508190555082600160008282546106a69190610ba6565b925050819055506106b6846103a4565b6106c084846101ad565b50505050565b6000600154905090565b60008054905090565b6000816000600360008373ffffffffffffffffffffffffffffffffffffffff1673ffffffffffffffffffffffffffffffffffffffff1681526020019081526020016000206001015403610761576040517f08c379a000000000000000000000000000000000000000000000000000000000815260040161075890610c48565b60405180910390fd5b600360008473ffffffffffffffffffffffffffffffffffffffff1673ffffffffffffffffffffffffffffffffffffffff16815260200190815260200160002060010154915050919050565b6000816000600360008373ffffffffffffffffffffffffffffffffffffffff1673ffffffffffffffffffffffffffffffffffffffff1681526020019081526020016000206001015403610834576040517f08c379a000000000000000000000000000000000000000000000000000000000815260040161082b90610c48565b60405180910390fd5b6000805b6004805490508110156108d0576004818154811061085957610858610c9c565b5b9060005260206000200154600360008773ffffffffffffffffffffffffffffffffffffffff1673ffffffffffffffffffffffffffffffffffffffff1681526020019081526020016000206000015411156108bd576001826108ba9190610ba6565b91505b80806108c890610ccb565b915050610838565b5080600360008673ffffffffffffffffffffffffffffffffffffffff1673ffffffffffffffffffffffffffffffffffffffff1681526020019081526020016000206000015461091f9190610c68565b92505050919050565b600080fd5b600073ffffffffffffffffffffffffffffffffffffffff82169050919050565b60006109588261092d565b9050919050565b6109688161094d565b811461097357600080fd5b50565b6000813590506109858161095f565b92915050565b6000819050919050565b61099e8161098b565b81146109a957600080fd5b50565b6000813590506109bb81610995565b92915050565b600080604083850312156109d8576109d7610928565b5b60006109e685828601610976565b92505060206109f7858286016109ac565b9150509250929050565b600060208284031215610a1757610a16610928565b5b6000610a2584828501610976565b91505092915050565b60008115159050919050565b610a4381610a2e565b82525050565b6000602082019050610a5e6000830184610a3a565b92915050565b610a6d8161098b565b82525050565b6000602082019050610a886000830184610a64565b92915050565b600082825260208201905092915050565b7f4b657920616c7265616479206578697374732e00000000000000000000000000600082015250565b6000610ad5601383610a8e565b9150610ae082610a9f565b602082019050919050565b60006020820190508181036000830152610b0481610ac8565b9050919050565b7f56616c7565206d7573742062652067726561746572207468616e203000000000600082015250565b6000610b41601c83610a8e565b9150610b4c82610b0b565b602082019050919050565b60006020820190508181036000830152610b7081610b34565b9050919050565b7f4e487b7100000000000000000000000000000000000000000000000000000000600052601160045260246000fd5b6000610bb18261098b565b9150610bbc8361098b565b9250827fffffffffffffffffffffffffffffffffffffffffffffffffffffffffffffffff03821115610bf157610bf0610b77565b5b828201905092915050565b7f4b6579206e6f7420666f756e642e000000000000000000000000000000000000600082015250565b6000610c32600e83610a8e565b9150610c3d82610bfc565b602082019050919050565b60006020820190508181036000830152610c6181610c25565b9050919050565b6000610c738261098b565b9150610c7e8361098b565b925082821015610c9157610c90610b77565b5b828203905092915050565b7f4e487b7100000000000000000000000000000000000000000000000000000000600052603260045260246000fd5b6000610cd68261098b565b91507fffffffffffffffffffffffffffffffffffffffffffffffffffffffffffffffff8203610d0857610d07610b77565b5b60018201905091905056fea2646970667358221220a90ed76f2992c751492d9be31ce0ffb32520489d6f4816e21f8cd8b6a7baf56864736f6c634300080f0033",
  "linkReferences": {},
  "deployedLinkReferences": {}
}